:100000000C945E000C9486000C9486000C94860080
:100010000C9486000C9486000C9486000C94860048
:100020000C9486000C9486000C9486000C94860038
:100030000C9486000C9486000C9486000C94860028
:100040000C9423010C9486000C9486000C9486007A
:100050000C9486000C9486000C9486000C94860008
:100060000C9486000C9486000000000024002700F9
:100070002A0000000000250028002B0004040404CE
:100080000404040402020202020203030303030342
:10009000010204081020408001020408102001021F
:1000A00004081020000000080002010000030407FB
:1000B0000000000000000000C602320311241FBE31
:1000C000CFEFD8E0DEBFCDBF21E0A6E0B1E001C0B8
:1000D0001D92A732B207E1F711E0A0E0B1E0E2E340
:1000E000F9E002C005900D92A630B107D9F710E0F3
:1000F000CDE5D0E004C02197FE010E946103CC351C
:10010000D107C9F70E946D010C948C040C94000077
:100110003FB7F8948091100190911101A0911201C4
:10012000B091130126B5A89B05C02F3F19F0019689
:10013000A11DB11D3FBFBA2FA92F982F8827BC0141
:10014000CD01620F711D811D911D42E0660F771F69
:10015000881F991F4A95D1F708950F931F93CF9346
:10016000DF9300D000D000D01F92CDB7DEB70E9441
:10017000880000911A0110911B0120911C013091FF
:100180001D01601B710B820B930B6C32714081055A
:10019000910568F3F89480912201E0912001F0919B
:1001A0002101409117015091180120911E013091B9
:1001B0001F015A83498389010F5F1F4FD9019C9109
:1001C0009F839081982B9E839081809589238D8336
:1001D0008D818C8388E08B835E816D814F813B8133
:1001E0002C8189819A81D801508347FD252F3A952A
:1001F0002083262F39F0441F00C0000060830000D8
:1002000000C0F2CF38E04D9160830000019761F7A4
:100210004F833B832C839A83898378940E94880040
:1002200060931A0170931B0180931C0190931D0130
:1002300027960FB6F894DEBF0FBECDBFDF91CF91EA
:100240001F910F9108951F920F920FB60F921124D4
:100250002F933F938F939F93AF93BF9380910C0104
:1002600090910D01A0910E01B0910F0130910B0101
:1002700023E0230F2D3758F50196A11DB11D2093C2
:100280000B0180930C0190930D01A0930E01B0938C
:100290000F018091100190911101A0911201B09174
:1002A00013010196A11DB11D8093100190931101BE
:1002B000A0931201B0931301BF91AF919F918F91C1
:1002C0003F912F910F900FBE0F901F90189526E829
:1002D000230F0296A11DB11DD2CF789484B5826000
:1002E00084BD84B5816084BD85B5826085BD85B5DA
:1002F000816085BD80916E00816080936E00109258
:1003000081008091810082608093810080918100D2
:100310008160809381008091800081608093800063
:100320008091B10084608093B1008091B0008160C1
:100330008093B00080917A00846080937A008091ED
:100340007A00826080937A0080917A008160809345
:100350007A0080917A00806880937A001092C100C0
:100360008091190190E0FC01EC55FF4F2491FC01B4
:10037000E057FF4F3491FC01E458FF4FE491EE2326
:10038000D9F0222351F0233009F441C0B0F52130D7
:1003900009F443C0223009F444C0F0E0EE0FFF1F1F
:1003A000EE58FF4FA591B4918FB7F8949C91E32F2D
:1003B000E095E923EC938FBF0E94880060931A01B7
:1003C00070931B0180931C0190931D01E0911E010D
:1003D000F0911F018091140190911501880F991FD0
:1003E000880F991F8E0F9F1FE817F90738F51082A5
:1003F0001182128213823496F7CF2730A9F0283069
:10040000C9F0243051F6809180008F7D03C0809127
:1004100080008F7780938000C0CF84B58F7784BDB4
:10042000BCCF84B58F7DFBCF8091B0008F77809358
:10043000B000B3CF8091B0008F7DF9CF80911601CD
:100440008068809316010E94AD00809116018F771D
:100450008093160100E010E02FB7F89480910C0112
:1004600090910D01A0910E01B0910F012FBF40910D
:100470000701509108016091090170910A01841BE4
:10048000950BA60BB70B8C349105A105B10508F4AB
:1004900068C0C09106019C2F990F9C0F8C2F880F6C
:1004A000880F2C2F281B30E080E050E040E0BC2F6C
:1004B000B095DFEFD20FDD24D394D90E6EEFC62EA8
:1004C000C20E235072E0B72EB90E6B2F630F653545
:1004D00008F04EC0622F680F7B2D781BA0E0E091E2
:1004E0001401F09115014E175F07A0F4E0901E0172
:1004F000F0901F01FA01EE0FFF1FEE0FFF1FEE0D30
:10050000FF1DA0837183628313826091160160686E
:10051000609316014F5F5F4F8F5035503C30A9F606
:100520008091160187FF07C00E94AD0080911601DF
:100530008F7780931601CF5FC09306012FB7F89491
:1005400080910C0190910D01A0910E01B0910F01CD
:100550002FBF8093070190930801A0930901B093E6
:100560000A010115110509F477CF0E94000074CF2C
:100570006A3A30F46D2D681BAC2DA80F70E0AFCF38
:10058000A92FA81B7D2F780F60E0A9CF0F931F9391
:10059000CF93DF932FB7F89480910C0190910D01C8
:1005A000A0910E01B0910F012FBF8093070190938E
:1005B0000801A0930901B0930A0184E690E09093AA
:1005C0001501809314011092160180E991E0909337
:1005D00018018093170182E0809319011092210184
:1005E000109220011092220102E910E0F8012491FA
:1005F000CEE7D0E0FE018491882399F090E0880F47
:10060000991FFC01E859FF4FA591B491FC01EE58E8
:10061000FF4F859194918FB7F8949C91292B2C933F
:100620008FBF80911701909118010E9467039093EA
:100630001F0180931E01FE01C491EC2FF0E0EE0F2C
:10064000FF1FEE58FF4F8591949190932101809365
:100650002001F801049100932201DF91CF911F91B5
:100660000F910895CF93DF938091190190E0FC01E1
:10067000E057FF4F249184589F4FFC0184918823B9
:10068000C1F090E0880F991FFC01E859FF4FC59118
:10069000D491FC01EE58FF4FA591B4919FB7F89407
:1006A0008881E22FE0958E2388838C91E823EC9358
:1006B0009FBF80911E0190911F01DF91CF910C94FB
:1006C0000304EE0FFF1F0590F491E02D09940F93A2
:1006D0001F93CF93DF938230910510F482E090E076
:1006E000E0912501F091260130E020E0B0E0A0E0AB
:1006F000309799F42115310509F44AC0281B390BAC
:1007000024303105D8F58A819B816115710589F105
:10071000FB0193838283FE0111C0408151810281DC
:10072000138148175907E0F04817590799F41097B3
:1007300061F012960C93129713961C933296CF0188
:10074000DF91CF911F910F91089500932501109390
:100750002601F4CF2115310551F04217530738F027
:10076000A901DB019A01BD01DF01F801C1CFEF0151
:10077000F9CF9093260180932501CDCFFE01E20FA2
:10078000F31F819391932250310939832883D7CF66
:100790002091230130912401232B41F42091020167
:1007A0003091030130932401209323012091000113
:1007B000309101012115310541F42DB73EB740912B
:1007C000040150910501241B350BE0912301F091A8
:1007D0002401E217F307A0F42E1B3F0B281739075B
:1007E00078F0AC014E5F5F4F2417350748F04E0F8D
:1007F0005F1F5093240140932301819391939FCFD6
:10080000F0E0E0E09CCFCF93DF930097E9F0FC01AC
:10081000329713821282A0912501B0912601ED0139
:1008200030E020E01097A1F420813181820F931FE6
:1008300020912301309124012817390709F061C064
:10084000F0932401E0932301DF91CF910895EA0111
:10085000CE17DF07E8F54A815B819E0141155105FE
:10086000B1F7E901FB83EA8349915991C40FD51F80
:10087000EC17FD0761F4808191810296840F951F2A
:10088000E90199838883828193819B838A83F0E045
:10089000E0E012968D919C9113970097B9F52D91F8
:1008A0003C911197CD010296820F931F2091230155
:1008B000309124012817390739F6309751F51092F5
:1008C000260110922501B0932401A0932301BCCFEF
:1008D000D383C28340815181840F951FC817D907E4
:1008E00061F44E5F5F4F88819981480F591F518392
:1008F00040838A819B81938382832115310509F08E
:10090000B0CFF0932601E09325019ECFFD01DC01DD
:10091000C0CF13821282D7CF10E0CDE5D0E004C063
:10092000FE010E9461032196CE35D107C9F7F894E4
:02093000FFCFF7
:0609320000002701800017
:00000001FF
